:060000000A128A11122809
:10000800FE00030EF3000408F4000A08F50083124A
:1000180003137F08F6000A128A1157280A128A1158
:1000280015288313ED30FD001D30FE003D30FF0024
:10003800E33084000A168A1561250A128A110A1209
:100048008A1505200A128A11ED000A128A1506205F
:100058000A128A11EE00831790308400F0300A16D5
:100068008A152B250A128A111030840024300A16AA
:100078008A152B250A128A118313A0308400E330D5
:100088000A168A152B25A001A101E901EA01EB0155
:10009800EC01F701F801F901FA01FB01FC01830108
:1000A8000A168A11452A0B1C482E061086140615B6
:1000B8008615861B6A28003083160317C700003090
:1000C800C6000030C5000130C400482E831603174F
:1000D8004403450446044704031D482E83120313B2
:1000E8000610861406158615061AF2287703780472
:1000F80079047A04031D95280730F0000030F100D8
:100108002208F2007207A43E84007008831780005A
:10011800840A710880000130A2070318A30A00307E
:10012800A307831603132403250426042704031DA9
:10013800B4280730F0000030F100831203132308BD
:10014800F2007207DC3E8400700883178000840A7E
:10015800710880000130A3070318A40A0030A4071F
:10016800831269036A046B046C04031DE0282408E5
:1001780025040319E02883160313430344040319D1
:10018800E028831203136D036E04031DE028073073
:10019800F0000030F1002408F2007207C33E84002A
:1001A800700883138000840A710880000130A40756
:1001B8000318A50A0030A507831269036A046B04B3
:1001C8006C04031D472E02306D066E04031D472E76
:1001D800250826040319472E07305C2D861A68293E
:1001E8007703780479047A04031D0F290430F0009A
:1001F8000030F1002208F2007207A43E8400700863
:1002080083178000840A710880000130A207031850
:10021800A30A0030A3078316031324032504260426
:100228002704031D2E290430F0000030F10083124A
:1002380003132308F2007207DC3E8400700883175A
:100248008000840A710880000130A3070318A40AFB
:100258000030A407831269036A046B046C04031D4D
:100268005A292408250403195A298316031343031A
:10027800440403195A29831203136D036E04031DE2
:100288005A290430F0000030F1002408F200720707
:10029800C33E8400700883138000840A71088000BC
:1002A8000130A4070318A50A0030A50783126903C3
:1002B8006A046B046C04031D472E02306D066E043D
:1002C800031D472E04305C2D061BE32977037804B1
:1002D80079047A04031D85290130F0000030F1000B
:1002E8002208F2007207A43E840070088317800079
:1002F800840A710880000130A2070318A30A00309D
:10030800A307831603132403250426042704031DC7
:10031800A4290130F0000030F100831203132308F0
:10032800F2007207DC3E8400700883178000840A9C
:10033800710880000130A3070318A40A0030A4073D
:100348000230831603136306640465046604031D00
:10035800B5290030B3000030B2000030B1000130E0
:10036800B0008312031369036A046B046C04031D51
:10037800D6296D036E04031DD6290130F000003024
:10038800F1002408F2007207C33E8400700883134A
:100398008000840A710880000130A4070318A50AA8
:1003A8000030A50769036A046B046C04031D472E1B
:1003B80002306D066E04031D472E01305C2D861B2E
:1003C800142A7703780479047A04031DFA29220889
:1003D800F0007007A43E840083178001840A80011E
:1003E8000130A2070318A30A0030A30783160313DA
:1003F8002403250426042704031D472E8312031310
:100408002308F0007007DC3E840083178001840A0B
:1004180080010130A3070318A40A0030A407472E5F
:100428000614861006158615061A922A770378048C
:1004380079047A04031D352A0830F0000030F100F1
:100448002208F2007207A43E840070088317800017
:10045800840A710880000130A2070318A30A00303B
:10046800A307831603132403250426042704031D66
:10047800542A0830F0000030F100831203132308D7
:10048800F2007207DC3E8400700883178000840A3B
:10049800710880000130A3070318A40A0030A407DC
:1004A800831269036A046B046C04031D802A240800
:1004B80025040319802A83160313430344040319EC
:1004C800802A831203136D036E04031D802A0830EB
:1004D800F0000030F1002408F2007207C33E8400E7
:1004E800700883138000840A710880000130A40713
:1004F8000318A50A0030A507831269036A046B0470
:100508006C04031D472E02306D066E04031D472E32
:10051800250826040319472E08305C2D861A082B57
:100528007703780479047A04031DAF2A0530F000B4
:100538000030F1002208F2007207A43E840070081F
:1005480083178000840A710880000130A20703180D
:10055800A30A0030A30783160313240325042604E3
:100568002704031DCE2A0530F0000030F100831265
:1005780003132308F2007207DC3E84007008831717
:100588008000840A710880000130A3070318A40AB8
:100598000030A407831269036A046B046C04031D0A
:1005A800FA2A240825040319FA2A83160313430395
:1005B80044040319FA2A831203136D036E04031DFE
:1005C800FA2A0530F0000030F1002408F200720722
:1005D800C33E8400700883138000840A7108800079
:1005E8000130A4070318A50A0030A5078312690380
:1005F8006A046B046C04031D472E02306D066E04FA
:10060800031D472E05305C2D061B7E2B77037804CF
:1006180079047A04031D252B0230F0000030F10024
:100628002208F2007207A43E840070088317800035
:10063800840A710880000130A2070318A30A003059
:10064800A307831603132403250426042704031D84
:10065800442B0230F0000030F1008312031323080A
:10066800F2007207DC3E8400700883178000840A59
:10067800710880000130A3070318A40A0030A407FA
:10068800831269036A046B046C04031D702B24082D
:1006980025040319702B8316031343034404031919
:1006A800702B831203136D036E04031D702B02302D
:1006B800F0000030F1002408F2007207C33E840005
:1006C800700883138000840A710880000130A40731
:1006D8000318A50A0030A507831269036A046B048E
:1006E8006C04031D472E02306D066E04031D472E51
:1006F80002305C2D861BEF2B7703780479047A048B
:10070800031D952B2208F0007007A43E8400831770
:100718008001840A80010130A2070318A30A00306F
:10072800A307831603132403250426042704031DA3
:10073800AE2B831203132308F0007007DC3E8400FD
:1007480083178001840A80010130A3070318A40AD3
:100758000030A4070230831603136306640465049B
:100768006604031DBF2B0030B3000030B200003018
:10077800B1000030B0008312031369036A046B04EC
:100788006C04031DDA2B6D036E04031DDA2B240899
:10079800F0007007C33E840083138001840A80013F
:1007A8000130A4070318A50A0030A50769036A04E5
:1007B8006B046C04031D472E02306D066E04031D86
:1007C800472E2508F0007007C83E84008317800173
:1007D800840A80016A2D0614861406118615061AE5
:1007E8006D2C7703780479047A04031D102C0930E2
:1007F800F0000030F1002208F2007207A43E8400E5
:10080800700883178000840A710880000130A207ED
:100818000318A30A0030A30783160313240325042F
:1008280026042704031D2F2C0930F0000030F100A6
:10083800831203132308F2007207DC3E8400700859
:1008480083178000840A710880000130A307031809
:10085800A40A0030A407831269036A046B046C04B9
:10086800031D5B2C2408250403195B2C8316031332
:100878004303440403195B2C831203136D036E04B2
:10088800031D5B2C0930F0000030F1002408F20051
:100898007207C33E8400700883138000840A7108BD
:1008A80080000130A4070318A50A0030A5078312A9
:1008B80069036A046B046C04031D472E02306D063D
:1008C8006E04031D472E250826040319472E0930F8
:1008D8005C2D861AE72C7703780479047A04031DC3
:1008E8008A2C0630F0000030F1002208F20072076E
:1008F800A43E8400700883178000840A7108800071
:100908000130A2070318A30A0030A30783160313B4
:100918002403250426042704031DA92C0630F0000F
:100928000030F100831203132308F2007207DC3E43
:100938008400700883178000840A710880000130E1
:10094800A3070318A40A0030A407831269036A04E2
:100958006B046C04031DD52C240825040319D52C1D
:1009680083160313430344040319D52C831203137A
:100978006D036E04031DD52C0630F0000030F10025
:100988002408F2007207C33E8400700883138000B5
:10099800840A710880000130A4070318A50A0030F2
:1009A800A507831269036A046B046C04031D472EB0
:1009B80002306D066E04031D472E25082604031910
:1009C800472E06305C2D061B712D770378047904B9
:1009D8007A04031D042D0330F0000030F1002208D2
:1009E800F2007207A43E8400700883178000840A0E
:1009F800710880000130A2070318A30A0030A3077A
:100A0800831603132403250426042704031D232D1A
:100A18000330F0000030F100831203132308F200C2
:100A28007207DC3E8400700883178000840A71080E
:100A380080000130A3070318A40A0030A40783121A
:100A480069036A046B046C04031D4F2D24082504F4
:100A580003194F2D831603134303440403194F2D21
:100A6800831203136D036E04031D4F2D0330F00032
:100A78000030F1002408F2007207C33E84007008B9
:100A880083138000840A710880000130A4070318CA
:100A9800A50A0030A507831269036A046B046C0475
:100AA800031D472E02306D066E04031D472E0330CA
:100AB800F0000030F1002508F2007207C83E8400FB
:100AC800700883178000840A710880000130A50728
:100AD8000318A60A0030A607472E861B882D00306B
:100AE80083160317C3000030C2000030C100013074
:100AF800C000003083160313AF000030AE00003092
:100B0800AD000130AC00472E061486140615861178
:100B1800061AB52D003083160313AF000030AE005F
:100B28000030AD000030AC000030AB000030AA004F
:100B38000030A9000030A80083160317A401A501FE
:100B4800A601A701A801A90183120313A201A30109
:100B58000030EC000030EB000030EA000030E90023
:100B6800472E861AD72D013083160313A0070030AD
:100B780003180130A107003003180130A207003024
:100B880003180130A307023020062104220423049D
:100B9800031D472E0030A3000030A2000030A10042
:100BA8000030A000472E061B0E2E831603132F08B5
:100BB8002E042D042C04031DE92D0030EA0000301A
:100BC800E9000030E8000130E70000308316031721
:100BD800BB000030BA000030B9000130B800831201
:100BE80003136C086B046A046904031D052E0030A6
:100BF80083160313E6000030E5000030E4000130FE
:100C0800E300831269036A046B046C04031D472E16
:100C18000130442E861B482E831603132F082E04FA
:100C28002D042C04031D202E0030EA000030E900BA
:100C38000030E8000230E700003083160317BB00DD
:100C48000030BA000030B9000130B8008312031335
:100C58006C086B046A046904031D3C2E003083167B
:100C68000313E6000030E5000030E4000230E30042
:100C7800831269036A046B046C04031D472E023057
:100C8800ED000030EE000B10760883120313FF000E
:100C980075088A0074088400730E8300FE0E7E0EA9
:100CA8000900831203136C086B046A046904031DAA
:100CB800892E0530C5004508AB0001300A168A1593
:100CC8004A270A128A111C3083120313AC008030A1
:100CD800AD000A168A15C8260A128A110230831234
:100CE8000313C5004508AB0001300A168A154A27C8
:100CF8000A128A11583083120313AC008030AD00F9
:100D08000A168A15C8260A128A1177037804790404
:100D18007A04031DAC2E8316031724082504031D2B
:100D2800AC2E073083120313C5004508AB00023010
:100D38000A168A154A270A128A111C3083120313CD
:100D4800AC008030AD000A168A15C8260A128A112E
:100D5800831203136C086B046A046904031D562F7D
:100D68000230C5004508AB0002300A168A154A272A
:100D78000A128A11463083120313AC008030AD008A
:100D88000A168A15C8260A128A1107308312031315
:100D9800C5004508AB0002300A168A154A270A1210
:100DA8008A11653083120313C5004508B500831600
:100DB8000317250883120313B700831603172408A3
:100DC80083120313B600D7300A168A1120250A1297
:100DD8008A11D73083120313AC000030AD000A1615
:100DE8008A15C8260A128A11083083120313C5000F
:100DF8004508AB0002300A168A154A270A128A11DA
:100E0800653083120313C5004508B5008316031720
:100E1800270883120313B7008316031726088312C3
:100E28000313B600D7300A168A1120250A128A1130
:100E3800D73083120313AC000030AD000A168A15B0
:100E4800C8260A128A11093083120313C5004508FF
:100E5800AB0002300A168A154A270A128A11653031
:100E680083120313C5004508B50083160317290824
:100E780083120313B700831603172808831203137A
:100E8800B600D7300A168A1120250A128A11D730DF
:100E980083120313AC000030AD000A168A15C82669
:100EA8000A128A1104308316031724062504031D29
:100EB8007F2F053026062704031D7F2F06302806BE
:100EC8002904031D7F2F003083120313EC00003028
:100ED800EB000030EA000130E9000030FA00003091
:100EE800F9000030F8000030F7000A128A157B2359
:100EF8000A128A11962F0D3083120313C500450874
:100F0800AB0002300A168A154A270A128A11543091
:100F180083120313AC008030AD000A168A15C82668
:100F28000A128A1103308312031322062304031DB5
:100F38000800A201A301080000300A168A156E25D0
:100F48000A128A11343083120313AC00F130AB005B
:100F5800AB0BAC2FAC0BAC2F03300A168A158625C9
:100F68000A128A110D3083120313AC00FB30AB0058
:100F7800AB0BBC2FAC0BBC2F03300A168A15862589
:100F88000A128A111D3083120313AC009030AB0093
:100F9800AB0BCC2FAC0BCC2F000003300A168A15F4
:100FA80086250A128A1102300A168A1586250A121F
:100FB8008A1102300A168A1586250A128A11083003
:100FC8000A168A1586250A128A1100300A168A1509
:100FD80086250A128A110C300A168A1586250A12E5
:100FE8008A1100300A168A1586250A128A110630D7
:080FF8000A168A15862508007F
:10100A000134003483160313440883120313A8001F
:10101A0083160313430883120313A7006430A9003D
:10102A000030AA000A168A15A2250A128A15831206
:10103A000313280883160313C20083120313270815
:10104A0083160313C100460883120313A8008316EC
:10105A000313450883120313A7000A30A9000030BE
:10106A00AA000A168A15A2250A128A1583120313E0
:10107A00280883160313C000831203132708831654
:10108A000313BF004808BE004708BD003F084107D8
:10109A0083120313AD008316031340080318400A92
:1010AA00420783120313AE00831603133D0883120B
:1010BA0003132D0783160313BB003E0803183E0AC9
:1010CA00831203132E0783160313BC00080083122E
:1010DA0003133508BB003608BC003708BD000310EF
:1010EA003C0D3D0DBE003E08C1003808BB00390862
:1010FA00BC003A08BD0003103C0D3D0DBE003E0881
:10110A00C0004108031995284008410203189C2889
:10111A004103FF3A4007BB0019303B02031C9C28DD
:10112A003808B5003908B6003A08B7000800400880
:10113A0003190800410840020318AB284003FF3A8C
:10114A004107BB0019303B02031808000630BB00F8
:10115A003B08BF00B71BBF17BA1B3F17B617FF30B4
:10116A00B505FF30B6050030B705B917FF30B80529
:10117A00FF30B9050030BA05400841020318EB28D0
:10118A0001300310B80DB90DBA0DFF3E031DC62874
:10119A000130C002400841060319E6280130BF02A7
:1011AA003F0807390319E628C52801300310B70C90
:1011BA00B60CB50CFF3E031DDB280130BB003B0813
:1011CA00C1074108400603191429DA2841084002D8
:1011DA000318142901300310B50DB60DB70DFF3EE3
:1011EA00031DF0280130C1024008410603191029E5
:1011FA000130BF023F08073903191029EF280130CF
:10120A000310BA0CB90CB80CFF3E031D05290130B6
:10121A00BB003B08C00741084006031D0429BF1F45
:10122A002629FF30B506FF30B606FF30B706013073
:10123A00B507003003180130B60700300318013033
:10124A00B7073F1F3829FF30B806FF30B906FF300D
:10125A00BA060130B807003003180130B907003068
:10126A0003180130BA07BF013508B8073608031159
:10127A000318360A031DB907370803110318370A7A
:10128A00031DBA07BA1F5B29FF30B806FF30B9063B
:10129A00FF30BA060130B807003003180130B90729
:1012AA00003003180130BA07BF01BF0A3808A70087
:1012BA003908A8003A08A9004108BB003B08AA005F
:1012CA003F08BC003C08AB000A168A11D8208312DA
:1012DA0003132708B5002808B6002908B700080034
:1012EA0083160317380339043A043B04031D080024
:1012FA00831603136303640465046604031DC32A87
:10130A000030A7000030A6000030A5000130A4007C
:10131A0083120313AB01AB0A8316031363080A167D
:10132A008A154A270A128A156C3083120313AC00F5
:10133A008030AD000A168A15C8260A128A150230AC
:10134A0083120313C4004408AB0001300A168A153D
:10135A004A270A128A15503083120313AC008030D0
:10136A00AD000A168A15C8260A128A150230831297
:10137A000313C4004408AB0002300A168A154A2730
:10138A000A128A155C3083120313AC008030AD0058
:10139A000A168A15C8260A128A15053083120313FB
:1013AA00C4004408AB0002300A168A154A270A12FA
:1013BA008A151C3083120313AC008030AD000A1664
:1013CA008A15C8260A128A15053083120313C40027
:1013DA004408AB0001300A168A154A270A128A15F0
:1013EA00653083120313C4004408B500831603173B
:1013FA005D0883120313B700831603175C08831270
:10140A000313B600D7300A168A1120250A128A1544
:10141A00D73083120313AC000030AD000A168A15C8
:10142A00C8260A128A15063083120313C400440818
:10143A00AB0001300A168A154A270A128A15653046
:10144A0083120313C4004408B500831603175F0808
:10145A0083120313B700831603175E08831203135C
:10146A00B600D7300A168A1120250A128A15D730F3
:10147A0083120313AC000030AD000A168A15C82681
:10148A000A128A15073083120313C4004408AB00FA
:10149A0001300A168A154A270A128A1565308312FC
:1014AA000313C4004408B5008316031761088312A6
:1014BA000313B70083160317600883120313B600D9
:1014CA00D7300A168A1120250A128A15D7308312B4
:1014DA000313AC000030AD000A168A15C8260A129A
:1014EA008A15083083120313C4004408AB00013084
:1014FA000A168A154A270A128A15683083120313B4
:10150A00AC008030AD000A168A15C8260A128A1560
:10151A000A128A1507200A128A150A168A11462102
:10152A000A128A15831603133C08803A831203139E
:10153A00C400831603136E08803A8312031344020D
:10154A00031DAB2A831603136D083B020318B92A3D
:10155A0083160317DC01DD01DE01DF01E001E10191
:10156A0083120313A301A401033083120313230676
:10157A002404031DD72AA301A401D72A8312AB018D
:10158A00AB0A01300A168A154A270A128A156A30E6
:10159A0083120313AC008030AD000A168A15C826E0
:1015AA000A128A150230831603136306640465045B
:1015BA006604031D672B0030A7000030A600003028
:1015CA00A5000030A40083120313AB01AB0A8316F3
:1015DA00031363080A168A154A270A128A156C30F9
:1015EA0083120313AC008030AD000A168A15C82690
:1015FA000A128A15023083120313C4004408AB008E
:10160A0002300A168A154A270A128A155C30831292
:10161A000313AC008030AD000A168A15C8260A12D8
:10162A008A15043083120313C4004408AB00023045
:10163A000A168A154A270A128A1565308312031375
:10164A00C4004408B5008316031333088312031336
:10165A00B90083160313320883120313B8008316E2
:10166A000313310883120313B700831603133008D8
:10167A0083120313B600D7300A168A1120250A12DC
:10168A008A15D73083120313AC000030AD000A1656
:10169A008A15C8260A128A15053083120313C40054
:1016AA004408AB0002300A168A154A270A128A151C
:1016BA001C3083120313AC008030AD000A168A1561
:1016CA00C826080083120313AB01AB0A02300A16BC
:1016DA008A154A270A128A156A3083120313AC0044
:1016EA008030AD000A168A15C82608008312031333
:1016FA006D036E04031D8B2BAB01AB0A6D080A1632
:10170A008A154A270A128A156C30962B83120313FC
:10171A00AB01AB0A01300A168A154A270A128A1542
:10172A006A3083120313AC008030AD000A168A15A2
:10173A00C8260A128A150230831203136D066E0434
:10174A00031DB12BAB01AB0A6D080A168A154A278D
:10175A000A128A156C30BC2B83120313AB01AB0A35
:10176A0002300A168A154A270A128A156A30831223
:10177A000313AC008030AD000A168A15C8260A1277
:10178A008A15831203136D036E04031DF32D0230B1
:10179A00C4004408AB0001300A168A154A270A1207
:1017AA008A15623083120313AC008030AD000A162A
:1017BA008A15C8260A128A15023083120313C40036
:1017CA004408AB0002300A168A154A270A128A15FB
:1017DA005F3083120313AC008030AD000A168A15FD
:1017EA00C8260A128A15043083120313C400440857
:1017FA00AB0001300A168A154A270A128A15653083
:10180A0083120313C4004408B50083160313440863
:10181A0083120313B70083160313430883120313B7
:10182A00B600D7300A168A1120250A128A15D7302F
:10183A0083120313AC000030AD000A168A15C826BD
:10184A000A128A15053083120313C4004408AB0038
:10185A0001300A168A154A270A128A156530831238
:10186A000313C4004408B500831603134608831201
:10187A000313B70083160313450883120313B60034
:10188A00D7300A168A1120250A128A15D7308312F0
:10189A000313AC000030AD000A168A15C8260A12D6
:1018AA008A15063083120313C4004408AB000130C2
:1018BA000A168A154A270A128A154C30831203130C
:1018CA00C4004408B500831603134808831203139F
:1018DA00B70083160313470883120313B600D730E1
:1018EA000A168A1120250A128A15D7308312031381
:1018FA00AC000030AD000A168A15C8260A128A15ED
:10190A008312031320032104031D3C2D83160313A2
:10191A00440883120317970083160313430883129C
:10192A0003179600831603134608831203179900B8
:10193A0083160313450883120317980083160313AB
:10194A004808831203179B00831603134708831260
:10195A0003179A000C3083120313C4004408AB0027
:10196A0001300A168A154A270A128A156530831227
:10197A000313C4004408B50083120317170883121F
:10198A000313B70083120317160883120313B60052
:10199A00D7300A168A1120250A128A15D7308312DF
:1019AA000313AC000030AD000A168A15C8260A12C5
:1019BA008A150D3083120313C4004408AB000130AA
:1019CA000A168A154A270A128A15653083120313E2
:1019DA00C4004408B50083120317190883120313BD
:1019EA00B70083120317180883120313B600D730FF
:1019FA000A168A1120250A128A15D7308312031370
:101A0A00AC000030AD000A168A15C8260A128A15DB
:101A1A000E3083120313C4004408AB0001300A16C7
:101A2A008A154A270A128A154C3083120313C400F6
:101A3A004408B500831203171B0883120313B70067
:101A4A00831203171A0883120313B600D7300A1633
:101A5A008A1120250A128A15D73083120313AC0083
:101A6A000030AD000A168A15C8260A128A15831292
:101A7A00031320082104031DF32D831603134408BE
:101A8A008312031791008316031343088312031763
:101A9A0090008316031346088312031793008316D4
:101AAA000313450883120317920083160313480889
:101ABA00831203179500831603134708831203172B
:101ACA009400083083120313C4004408AB000130A9
:101ADA000A168A154A270A128A15653083120313D1
:101AEA00C4004408B50083120317110883120313B4
:101AFA00B70083120317100883120313B600D730F6
:101B0A000A168A1120250A128A15D730831203135E
:101B1A00AC000030AD000A168A15C8260A128A15CA
:101B2A00093083120313C4004408AB0001300A16BB
:101B3A008A154A270A128A15653083120313C400CC
:101B4A004408B50083120317130883120313B7005E
:101B5A0083120317120883120313B600D7300A162A
:101B6A008A1120250A128A15D73083120313AC0072
:101B7A000030AD000A168A15C8260A128A150A30DC
:101B8A0083120313C4004408AB0001300A168A15F5
:101B9A004A270A128A154C3083120313C4004408D8
:101BAA00B50083120317150883120313B7008312B3
:101BBA000317140883120313B600D7300A168A11C2
:101BCA0020250A128A15D73083120313AC0000307D
:101BDA00AD000A168A15C8260A128A15033083121E
:101BEA00031324062504031D092EA401A5010130AF
:101BFA00A0070318A10A0030A10703302006210418
:101C0A00031D092EA001A10102306D066E04031DF9
:101C1A00E92F0230C4004408AB0001300A168A15C5
:101C2A004A270A128A15623083120313AC008030E5
:101C3A00AD000A168A15C8260A128A1502308312BE
:101C4A000313C4004408AB0002300A168A154A2757
:101C5A000A128A155F3083120313AC008030AD007C
:101C6A000A168A15C8260A128A1504308312031323
:101C7A00C4004408AB0002300A168A154A270A1221
:101C8A008A15653083120313C4004408B50083160D
:101C9A000317490883120313B7008316031748086A
:101CAA0083120313B600D7300A168A1120250A12A6
:101CBA008A15D73083120313AC000030AD000A1620
:101CCA008A15C8260A128A15053083120313C4001E
:101CDA004408AB0002300A168A154A270A128A15E6
:101CEA00403083120313C4004408B5008316031757
:101CFA004B0883120313B700831603174A0883128B
:101D0A000313B600D7300A168A1120250A128A153B
:101D1A00D73083120313AC000030AD000A168A15BF
:101D2A00C8260A128A15053083120313C400440810
:101D3A00AB0002300A168A154A270A128A1502309F
:101D4A007B067C04031D112F83160317490899008B
:101D5A00480898004B089B004A089A000F308312E3
:101D6A000313C4004408AB0002300A168A154A2736
:101D7A000A128A15653083120313C4004408B50099
:101D8A0083160317190883120313B7008316031760
:101D9A00180883120313B600D7300A168A112025B1
:101DAA000A128A15D73083120313AC000030AD0033
:101DBA000A168A15C8260A128A15103083120313C6
:101DCA00C4004408AB0002300A168A154A270A12D0
:101DDA008A15653083120313C4004408B5008316BC
:101DEA0003171B0883120313B700831603171A0875
:101DFA0083120313B600D7300A168A1120250A1255
:101E0A008A15D73083120313AC000030AD000A16CE
:101E1A008A15C8260A128A157B037C04031D7D2FA6
:101E2A008316031749089500480894004B08970041
:101E3A004A0896000C3083120313C4004408AB000E
:101E4A0002300A168A154A270A128A156530831241
:101E5A000313C4004408B500831603171508831238
:101E6A000313B70083160317140883120313B6006B
:101E7A00D7300A168A1120250A128A15D7308312FA
:101E8A000313AC000030AD000A168A15C8260A12E0
:101E9A008A150D3083120313C4004408AB000230C4
:101EAA000A168A154A270A128A154C308312031316
:101EBA00C4004408B50083160317170883120313D6
:101ECA00B70083160317160883120313B600D73018
:101EDA000A168A1120250A128A15D730831203138B
:101EEA00AC000030AD000A168A15C8260A128A15F7
:101EFA007B087C04031DE92F831603174908910008
:101F0A00480890004B0893004A089200093083124F
:101F1A000313C4004408AB0002300A168A154A2784
:101F2A000A128A15653083120313C4004408B500E7
:101F3A0083160317110883120313B70083160317B6
:101F4A00100883120313B600D7300A168A11202507
:101F5A000A128A15D73083120313AC000030AD0081
:101F6A000A168A15C8260A128A150A30831203131A
:101F7A00C4004408AB0002300A168A154A270A121E
:101F8A008A154C3083120313C4004408B500831623
:101F9A000317130883120313B700831603171208D3
:101FAA0083120313B600D7300A168A1120250A12A3
:101FBA008A15D73083120313AC000030AD000A161D
:101FCA008A15C8260A128A150230831203132506B7
:101FDA002604031D0800A501A6010130FB0703180A
:101FEA00FC0A0030FC0703307B067C04031D080052
:101FFA00FB01FC010800FF1B0A2883137F188317C3
:10200A000008840A0319FF0A080010308A0004082D
:10201A00840A82070034013400340A3400346434F8
:10202A000034E834033410342734413464346D34D2
:10203A0069346E3469347334743472346134643498
:10204A006F34723420342034203400342034203465
:10205A0020342034203420342034203420342034D6
:10206A0020342034203400345534733475346134C8
:10207A00723469346F3420342034203420342034CC
:10208A00003445346E34633465346E3464346534F4
:10209A00723400342534643420342034203400343B
:1020AA0050346134733473343A340034253464342C
:1020BA0020340034563465343A34003449344E34CA
:1020CA0043340034413464346D34003444343A3493
:1020DA00003450343A34003456343A340034253417
:1020EA0064340034253400342A3400343E34003455
:1020FA0083120313AD01A81F8928A709A809A70AF3
:10210A000319A80AAD01AD0AAA1F9428A909AA09A8
:10211A00A90A0319AA0A0130AB002B08AD06AE01C1
:10212A00AF01270828040319CB28AC01AC0AA81B65
:10213A00AA2801300310A70DA80DFF3E031D9F28F2
:10214A000130AB002B08AC079C2801300310AE0D00
:10215A00AF0DFF3E031DAB2828082A02031DB7282E
:10216A0027082902031CC0282708A9022808031CDB
:10217A00AA03AA022E1401300310A80CA70CFF3ED2
:10218A00031DC1280130AC02031DAA282D0803191A
:10219A00D328AE09AF09AE0A0319AF0A2F08A8005F
:1021AA002E08A7000800831203132A080319E2283D
:1021BA00290828042704031DF5280030A700003049
:1021CA00A8000030A90008000130AC002C08AA07BA
:1021DA0001300310A90CA80CA70CFF3E031DEE2822
:1021EA00FE30290503191029E9280130AC002C0812
:1021FA00AA070130A707003003180130A8070030EA
:10220A0003180130A90701300310A90CA80CA70C68
:10221A00FF3E031D0929FF30290503191F29FA2842
:10222A000130AA0201300310A70DA80DA90DFF3E27
:10223A00031D1829A81B252902302A02031815296B
:10224A002A182D29FF30A7057F30A805FF30A905D8
:10225A000310AA0C2A08AC00AD01AE01103003101D
:10226A00AC0DAD0DAE0DFF3E031D34292C08A7049D
:10227A002D08A8042E08A9042B0803190800A91779
:10228A000800831603175D0883120313A800831638
:10229A0003175C0883120313A7006430A9000030F7
:1022AA00AA000A168A15A2250A168A11831203138E
:1022BA00280883120317B500831203132708831211
:1022CA000317B400831603175F0883120313A800C9
:1022DA00831603175E0883120313A7000A30A900A6
:1022EA000030AA000A168A15A2250A168A11831234
:1022FA000313280883120317B30083120313270852
:10230A0083120317B2008316031761088312031797
:10231A00B10083160317600883120317B00032084E
:10232A00340783120313AD0083120317330803180B
:10233A00330A350783120313AE00831203173008DA
:10234A00831203132D0783160313ED008312031759
:10235A0031080318310A831203132E078316031355
:10236A00EE000800831203135508D9005608DA0054
:10237A005708DB0003105A0D5B0DDC005C08E20015
:10238A006208031DD1290030D8000030D700003080
:10239A00D6000030D50008005508D9005608DA00E2
:1023AA005708DB0017300310DB0CDA0CD90CFF3EA0
:1023BA00031DD8295908DC005C08DD00D617FF3058
:1023CA00D505FF30D6050030D7055508DE0056087A
:1023DA00DF005708E000E1018E30E202E21F132A13
:1023EA006208803A8F3E0318032A0030D800003072
:1023FA00D7000030D6000030D500080001300310A5
:10240A00E10CE00CDF0CDE0CFF3E031D042A013058
:10241A00D9005908E20703192E2A032A1830620242
:10242A00031C2B2A0030D8000030D7000030D60019
:10243A000030D50008000130D9000310DE0DDF0D91
:10244A00E00DE10DD90B222A0130E2026208031DD8
:10245A00202A5D0803193C2ADE09DF09E009E1099F
:10246A00DE0A0319DF0A0319E00A0319E10A6108FF
:10247A00D8006008D7005F08D6005E08D5000800BB
:10248A0083160313880185018901A53092000A1673
:10249A008A11FA260A168A110A168A1552250A1666
:1024AA008A110A128A11A0270A168A110A168A158F
:1024BA0047250A168A11043083120313E8006808B4
:1024CA00AB0001300A168A154A270A168A113730D4
:1024DA0083120313AC008030AD000A168A15C82691
:1024EA000A168A11F03083160313860081138B179C
:1024FA008B150A168A1547250A168A110A168A1191
:10250A00FA260A168A110A168A15EA250A168A115D
:10251A000A168A159C270A168A110A168A11E922AE
:10252A000A168A11831603132B082A04290428047D
:10253A00031DCD2A023083120313E8006808AB009A
:10254A0001300A168A154A270A168A112A30831276
:10255A000313AC008030AD000A168A15C8260A1685
:10256A008A11023083120313E8006808AB000230B4
:10257A000A168A154A270A168A110B308312031380
:10258A00AC008030AD000A168A15C8260A168A11D0
:10259A0083160313280329042A042B04031DDA2AA9
:1025AA000A128A1575210A168A1102308316031334
:1025BA00280629042A042B04031D832A0A128A11D5
:1025CA0055260A168A11832A8316031740034104E3
:1025DA0042044304031D8A2B0030BF000030BE00B2
:1025EA000030BD000130BC003F0883120313AA006B
:1025FA00831603173E0883120313A90083160317D1
:10260A003D0883120313A800831603173C0883129C
:10261A000313A700831603136A0883120313AE0079
:10262A0083160313690883120313AD008316031379
:10263A00680883120313AC00831603136708831216
:10264A000313AB000A168A1509270A168A11831280
:10265A0003132A0883160313AB00831203132908F2
:10266A0083160313AA00831203132808831603137D
:10267A00A90083120313270883160313A800003046
:10268A0083160317C3000030C2000030C1000030B7
:10269A00C00083160313280329042A042B04031DEC
:1026AA00682B0030A7000030A6000030A5000130DA
:1026BA00A400003083160317BB000030BA000030B4
:1026CA00B9000130B80002300313280629042A048D
:1026DA002B04031D8A2B0030FA000030F900003069
:1026EA00F8000130F7000030A7000030A6000030E3
:1026FA00A5000030A400003083160317BB00003089
:10270A00BA000030B9000030B80000308316031751
:10271A00C3000030C2000030C1000030C000080011
:10272A00831203133808BB003908BC003A08BD00FD
:10273A0003103C0D3D0DBE003E08C3004308031DB7
:10274A00AD2B0030B5000030B6000030B7000800ED
:10275A003508BB003608BC003708BD0003103C0D25
:10276A003D0DBE003E08C4004408031DC32B0030C3
:10277A00B5000030B6000030B70008000030C000D5
:10278A000030C1000030C20089304407BB003B085A
:10279A00C3023808BB003908BC003A08BD00103033
:1027AA000310BD0CBC0CBB0CFF3E031DD52B3B0814
:1027BA00BE003E08C4003508BB003608BC00370816
:1027CA00BD0010300310BD0CBC0CBB0CFF3E031D3A
:1027DA00E72B3B08BE003E08C4068030BB003B081E
:1027EA00C405B917FF30B805FF30B9050030BA057E
:1027FA00B617FF30B505FF30B6050030B7051830FB
:10280A00BB003B08BF0001300310C00DC10DC20D53
:10281A00FF3E031D092C37083A02031D1A2C3608FD
:10282A003902031D1A2C35083802031C272C3508D7
:10283A00B8023608031C360FB9023708031C370AD8
:10284A00BA02401401300310B80DB90DBA0DFF3E9B
:10285A00031D282C0130BF02031D082C4008A700C5
:10286A004108A8004208A9004308BB003B08AA0087
:10287A004408BC003C08AB000A168A11D82083120F
:10288A0003132708B5002808B6002908B70008006E
:10289A00831203134508CB004608CC004708CD0035
:1028AA0003104C0D4D0DCE004E08CF004F08031DEE
:1028BA00652C0030C5000030C6000030C700080093
:1028CA004808CB004908CC004A08CD0003104C0D3B
:1028DA004D0DCE004E08D4005408031D7B2C003049
:1028EA00C5000030C6000030C700080054087B3E0F
:1028FA00CB004B08CF074508CB004608CC00470859
:10290A00CD0010300310CD0CCC0CCB0CFF3E031DB8
:10291A00872C4B08CE004E08D4004808CB00490843
:10292A00CC004A08CD0010300310CD0CCC0CCB0CD7
:10293A00FF3E031D992C4B08CE004E08D40680306A
:10294A00CB004B08D405C617C917FF30C805FF309E
:10295A00C9050030CA050030D0000030D10000306F
:10296A00D2000730CB004B08D300451CCA2C4808BC
:10297A00D007490803110318490A031DD1074A0859
:10298A00031103184A0A031DD20701300310C70CAA
:10299A00C60CC50CFF3E031DCB2C01300310C80D1D
:1029AA00C90DCA0DFF3E031DD32C0130D302031DEE
:1029BA00BA2C0930CB004B08D300451CF22C48082E
:1029CA00D007490803110318490A031DD1074A0809
:1029DA00031103184A0A031DD20701300310C70C5A
:1029EA00C60CC50CFF3E031DF32C01300310D20C9C
:1029FA00D10CD00CFF3E031DFB2C0130D302031D6A
:102A0A00E22C5008A7005108A8005208A9004F0854
:102A1A00CB004B08AA005408CC004C08AB000A169D
:102A2A008A11D820831203132708C5002808C60074
:102A3A002908C700080083120313C3003630BA00FE
:102A4A003A08BD000130B507FF30350784000A1681
:102A5A008A110A200A168A11BA003A08C2004208E4
:102A6A000319F12D253042060319472D4208BA00F1
:102A7A00430884003A08831380000130BA003A08F8
:102A8A00C307272DBE010130B507FF303507840083
:102A9A000A168A110A200A168A11C200003A031974
:102AAA00F12D643A03195D2D0D3A03195D2D272D79
:102ABA003D08840083130008C000840A0008C1008E
:102ACA000230BA003A08BD07C11F742D0330BA009C
:102ADA003A08BE04C009C109C00A0319C10AC201E1
:102AEA00C20A0530420603199B2D4208BA003A076A
:102AFA00013E84000A168A110A200A168A11BB00AE
:102B0A000A168A110A200A168A11BC003C084102D8
:102B1A00031D912D3B084002031C9B2D0130BA0076
:102B2A003A08C20705304206031D7A2D3E080339CA
:102B3A000319AA2D2D30BA00430884003A088313DA
:102B4A0080000130BA003A08C3074208BA003A08BE
:102B5A00BF00FF30BA003A08BF073F0A0319272D02
:102B6A000A30AF000030B0003F08BA003A07013E11
:102B7A0084000A168A110A200A168A11A7000A1660
:102B8A008A110A200A168A11A8004108AA004008D8
:102B9A00A9000A168A158A260A168A1183120313AD
:102BAA002808B2002708B1000A168A1519260A163B
:102BBA008A11831203132F08303EBB003B08C20060
:102BCA004208BA00430884003A088313800001309F
:102BDA00BA003A08C307AE2D430884008313800164
:102BEA00080083160317490883120313A8008316E3
:102BFA000317480883120313A7000A30A9000030FC
:102C0A00AA000A168A15A2250A168A118312031324
:102C1A00280883120317AB008312031327088312B1
:102C2A000317AA00831603174B0883120317AD0074
:102C3A00831603174A0883120317AC002C082A07C5
:102C4A0083160313EB00831203172D0803182D0AAA
:102C5A002B0783160313EC006C0883120313B000CE
:102C6A00831603136B0883120313AF000A168A151F
:102C7A00C5250A168A11831203132F08B5003008D6
:102C8A00B6003108B700831603136E0883120313C4
:102C9A00B000831603136D0883120313AF000A16DC
:102CAA008A15C5250A168A11831203132F08B8003C
:102CBA003008B9003108BA000A168A1195230A1693
:102CCA008A1183120313350883120317A70083128C
:102CDA000313360883120317A80083120313370855
:102CEA0083120317A900831603136C0883120313B4
:102CFA00A800831603136B0883120313A700831615
:102D0A0003136E0883120313AA00831603136D08B4
:102D1A0083120313A9000A168A117D200A168A1142
:102D2A0083120313280883120317AF0083120313B5
:102D3A00270883120317AE00270883120313A7007C
:102D4A0083120317280883120313A8008312031798
:102D5A00290883120313A9000A168A1533250A16AD
:102D6A008A11831203132708B5002808B600290818
:102D7A00B700831203172F0883120313B0008312BC
:102D8A0003172E0883120313AF000A168A15C525E6
:102D9A000A168A11831203132F08B8003008B900E3
:102DAA003108BA000A128A156C200A168A1183128F
:102DBA000313350883120317A4008312031336087A
:102DCA0083120317A500831203133708831203170C
:102DDA00A600260825042404031908000A308316CD
:102DEA000313ED000030EE0008000A168A1146218E
:102DFA000A168A110A168A11F6250A168A1100304D
:102E0A0083120313B500C830B6004230B7008316E8
:102E1A0003136E0883120313B000831603136D089D
:102E2A0083120313AF000A168A15C5250A168A11DA
:102E3A00831203132F08B8003008B9003108BA000A
:102E4A000A168A1195230A168A1183120313350862
:102E5A0083160313B400831203133608831603136D
:102E6A00B50083120313370883160313B600B8306C
:102E7A00E1000B30E2000430B9000030BA00003043
:102E8A0083120313B8008030B9003F30BA008316AA
:102E9A000313620883120313B00083160313610835
:102EAA0083120313AF000A168A15C5250A168A115A
:102EBA00831203132F08B5003008B6003108B70093
:102ECA000A168A1195230A168A11831203133508E2
:102EDA00C8003608C9003708CA0083160313340825
:102EEA0083120313C50083160313350883120313D1
:102EFA00C60083160313360883120313C7000A1683
:102F0A008A114D240A168A11831203134508E50013
:102F1A004608E6004708E7006508C8006608C900D1
:102F2A006708CA002430C500F430C6004A30C7001A
:102F3A000A168A114D240A168A11831203134508A8
:102F4A00B8004608B9004708BA00831603133A08BE
:102F5A0083120313B0008316031339088312031371
:102F6A00AF000A168A15C5250A168A118312031399
:102F7A002F08B5003008B6003108B7000A168A11C2
:102F8A0095230A168A11831203133508D5003608C9
:102F9A00D6003708D7000A168A11B7210A168A11ED
:102FAA0083120313560883160313B80083120313FC
:102FBA00550883160313B700380883120313E40075
:102FCA0083160313370883120313E300640DE40C1A
:102FDA00E30C640DE40CE30C6308950083160313F9
:102FEA00371CFB2F831203139716FE2F831203132A
:062FFA00971217120800F7
:103A560064008001840A04060319003404062C2D30
:103A66008312031329082804270403190800803049
:103A7600A90608000134003400340034013400344F
:103A8600003400340134003400300A168A158625C5
:103A96000A168A1501300A168A1586250800831625
:103AA600031307118312031312149210121597159C
:103AB600171508007E088A007F0882005D250A1611
:103AC6008A158000840A04087D0603190034FF0A5B
:103AD6000319FE0A612D83120313A700271C752DF7
:103AE6000816762D0812A71C7A2D88167B2D8812AB
:103AF600271D7F2D0817802D0813A71D842D8817D5
:103B060008008813080083120313AA0008112A0864
:103B16000A168A156E250A168A1583120313881546
:103B26000B3083120313A9006130A800A80B992D4E
:103B3600A90B992D9E2D8312031388110800831259
:103B46000313AB01AC01271CAE2D2908AB070318E4
:103B5600AC0A2A08AC0701300310A90DAA0DFF3ED6
:103B6600031DAF2D01300310A80CA70CFF3E031D4B
:103B7600B62D27082804031DA62D2C08A8002B08FF
:103B8600A700080083120313B401B01FD12DAF099B
:103B9600B009AF0A0319B00AB401B40A2F08A70086
:103BA6003008A800A9018E30B2003208AA003408F5
:103BB600B3003308AB000A168A11D8208312031308
:103BC6002708AF002808B0002908B10008008316AE
:103BD60003132308220421042004031DF62D831257
:103BE600031309100800831603132003210422047B
:103BF6002304031D080083120313091483160313F9
:103C06003308320431043004031D0D2E83120313CE
:103C1600851008008316031330033104320433047D
:103C2600031D08008312031385140800831203136F
:103C36002F0830040319482EB401B40AB01B2F2EE6
:103C460001300310AF0DB00DFF3E031D242E0130D1
:103C5600B3003308B407212E30083202031D352E77
:103C66002F083102031C3D2E2F08B1023008031C19
:103C7600B203B20201300310B00CAF0CFF3E031DBD
:103C86003E2E0130B402031D2F2E3208B00031083B
:103C9600AF00080083120313AB002B080F39A800EE
:103CA6002808A9002B08F039A8002808AA0008153A
:103CB6002A08A80004300310A80CFF3E031D5E2E40
:103CC60028080A168A156E250A168A158312031302
:103CD6008815193083120313A800A80B702E732EB3
:103CE60083120313881129080A168A156E250A16E7
:103CF6008A15831203138815193083120313A8003B
:103D0600A80B832E862E83120313881108008312B4
:103D16000313AC01AD01270828040319C32EAE0115
:103D2600AE0AA81BA22E01300310A70DA80DFF3E58
:103D3600031D972E0130AB002B08AE07942E0130E1
:103D46000310AC0DAD0DFF3E031DA32E28082A025D
:103D5600031DAF2E27082902031CB82E2708A90227
:103D66002808031CAA03AA022C1401300310A80C6D
:103D7600A70CFF3E031DB92E0130AE02031DA22E75
:103D86002D08A8002C08A700080083120313B10110
:103D9600B20131082C07AF002D08AE000318AE0A99
:103DA600B11BAE03831203132E08B0003008FF00C8
:103DB6002F0884000A168A1100200A168A15003A6E
:103DC6000319080031082C07AF002D08AE000318B0
:103DD600AE0AB11BAE03831203132E08B0003008DF
:103DE600FF002F0884000A168A1100200A168A1579
:103DF6000A168A154D260A168A15013083120313F0
:103E0600B1070318B20A0030B207CC2E0030831275
:103E16000313B3000030B2000030B1000030B00030
:103E2600271C292F2B08B0072C0803110318013E65
:103E3600031DB1072D0803110318013E031DB20728
:103E46002E0803110318013E031DB3070130AF000E
:103E56000310AB0DAC0DAD0DAE0DAF0B2B2F01301E
:103E66000310AA0CA90CA80CA70CFF3E031D332FA8
:103E76002A08290428042704031D132F3308AA003F
:103E86003208A9003108A8003008A70008008312EC
:103E96000313AE002E03031D732F2B087F3EAC00C9
:103EA6002C08B1003108AC0004300310AC0CFF3E06
:103EB600031D582F2C08AD002D08AF0031080F390F
:103EC600AC002C08B0002F080A168A1586250A169B
:103ED6008A158312031330080A168A1586250800E8
:103EE6000230831203132E06031D08002B08BF3E63
:103EF600AC002C08B1003108AC0004300310AC0C47
:103F0600FF3E031D812F2C08AD002D08AF003108A0
:103F16000F39AC002C08B0002F080A168A15862522
:103F26000A168A158312031330080A168A1586257F
:103F36000800831603132F082E042D042C04031DDA
:103F460008006703680469046A04031DB82F831216
:103F56000313AB01AB0A8316031367080A168A1507
:103F66004A270A168A156C30C32F83120313AB0136
:103F7600AB0A01300A168A154A270A168A156A30CC
:103F860083120313AC008030AD000A168A15C826CA
:103F96000A168A1502308316031367066804690435
:103FA6006A04031DEC2F83120313AB01AB0A8316BD
:103FB600031367080A168A154A270A168A156C30EB
:103FC60083120313AC008030AD000A168A15C8268A
:103FD600080083120313AB01AB0A02300A168A15D6
:103FE6004A270A168A156A3083120313AC008030FA
:0A3FF600AD000A168A15C82608005F
:02400E00393F38
:00000001FF
